{
  "contractName": "EasyCoin",
  "abi": [
    {
      "inputs": [],
      "stateMutability": "nonpayable",
      "type": "constructor"
    },
    {
      "anonymous": false,
      "inputs": [
        {
          "indexed": true,
          "internalType": "address",
          "name": "owner",
          "type": "address"
        },
        {
          "indexed": true,
          "internalType": "address",
          "name": "spender",
          "type": "address"
        },
        {
          "indexed": false,
          "internalType": "uint256",
          "name": "value",
          "type": "uint256"
        }
      ],
      "name": "Approval",
      "type": "event"
    },
    {
      "anonymous": false,
      "inputs": [
        {
          "indexed": true,
          "internalType": "address",
          "name": "from",
          "type": "address"
        },
        {
          "indexed": false,
          "internalType": "uint256",
          "name": "reward_amount",
          "type": "uint256"
        },
        {
          "indexed": false,
          "internalType": "uint256",
          "name": "epochCount",
          "type": "uint256"
        },
        {
          "indexed": false,
          "internalType": "bytes32",
          "name": "newChallengeNumber",
          "type": "bytes32"
        }
      ],
      "name": "Mint",
      "type": "event"
    },
    {
      "anonymous": false,
      "inputs": [
        {
          "indexed": true,
          "internalType": "address",
          "name": "from",
          "type": "address"
        },
        {
          "indexed": true,
          "internalType": "address",
          "name": "to",
          "type": "address"
        },
        {
          "indexed": false,
          "internalType": "uint256",
          "name": "value",
          "type": "uint256"
        }
      ],
      "name": "Transfer",
      "type": "event"
    },
    {
      "inputs": [],
      "name": "BLOCKS_PER_READJUSTMENT",
      "outputs": [
        {
          "internalType": "uint256",
          "name": "",
          "type": "uint256"
        }
      ],
      "stateMutability": "view",
      "type": "function"
    },
    {
      "inputs": [],
      "name": "MAXIMUM_TARGET",
      "outputs": [
        {
          "internalType": "uint256",
          "name": "",
          "type": "uint256"
        }
      ],
      "stateMutability": "view",
      "type": "function"
    },
    {
      "inputs": [],
      "name": "MINIMUM_TARGET",
      "outputs": [
        {
          "internalType": "uint256",
          "name": "",
          "type": "uint256"
        }
      ],
      "stateMutability": "view",
      "type": "function"
    },
    {
      "inputs": [
        {
          "internalType": "address",
          "name": "owner",
          "type": "address"
        },
        {
          "internalType": "address",
          "name": "spender",
          "type": "address"
        }
      ],
      "name": "allowance",
      "outputs": [
        {
          "internalType": "uint256",
          "name": "",
          "type": "uint256"
        }
      ],
      "stateMutability": "view",
      "type": "function"
    },
    {
      "inputs": [
        {
          "internalType": "address",
          "name": "spender",
          "type": "address"
        },
        {
          "internalType": "uint256",
          "name": "amount",
          "type": "uint256"
        }
      ],
      "name": "approve",
      "outputs": [
        {
          "internalType": "bool",
          "name": "",
          "type": "bool"
        }
      ],
      "stateMutability": "nonpayable",
      "type": "function"
    },
    {
      "inputs": [
        {
          "internalType": "address",
          "name": "account",
          "type": "address"
        }
      ],
      "name": "balanceOf",
      "outputs": [
        {
          "internalType": "uint256",
          "name": "",
          "type": "uint256"
        }
      ],
      "stateMutability": "view",
      "type": "function"
    },
    {
      "inputs": [],
      "name": "challengeNumber",
      "outputs": [
        {
          "internalType": "bytes32",
          "name": "",
          "type": "bytes32"
        }
      ],
      "stateMutability": "view",
      "type": "function"
    },
    {
      "inputs": [],
      "name": "decimals",
      "outputs": [
        {
          "internalType": "uint8",
          "name": "",
          "type": "uint8"
        }
      ],
      "stateMutability": "view",
      "type": "function"
    },
    {
      "inputs": [
        {
          "internalType": "address",
          "name": "spender",
          "type": "address"
        },
        {
          "internalType": "uint256",
          "name": "subtractedValue",
          "type": "uint256"
        }
      ],
      "name": "decreaseAllowance",
      "outputs": [
        {
          "internalType": "bool",
          "name": "",
          "type": "bool"
        }
      ],
      "stateMutability": "nonpayable",
      "type": "function"
    },
    {
      "inputs": [],
      "name": "epochCount",
      "outputs": [
        {
          "internalType": "uint256",
          "name": "",
          "type": "uint256"
        }
      ],
      "stateMutability": "view",
      "type": "function"
    },
    {
      "inputs": [
        {
          "internalType": "address",
          "name": "spender",
          "type": "address"
        },
        {
          "internalType": "uint256",
          "name": "addedValue",
          "type": "uint256"
        }
      ],
      "name": "increaseAllowance",
      "outputs": [
        {
          "internalType": "bool",
          "name": "",
          "type": "bool"
        }
      ],
      "stateMutability": "nonpayable",
      "type": "function"
    },
    {
      "inputs": [],
      "name": "lastRewardEthBlockNumber",
      "outputs": [
        {
          "internalType": "uint256",
          "name": "",
          "type": "uint256"
        }
      ],
      "stateMutability": "view",
      "type": "function"
    },
    {
      "inputs": [],
      "name": "lastRewardTo",
      "outputs": [
        {
          "internalType": "address",
          "name": "",
          "type": "address"
        }
      ],
      "stateMutability": "view",
      "type": "function"
    },
    {
      "inputs": [],
      "name": "latestDifficultyPeriodStarted",
      "outputs": [
        {
          "internalType": "uint256",
          "name": "",
          "type": "uint256"
        }
      ],
      "stateMutability": "view",
      "type": "function"
    },
    {
      "inputs": [],
      "name": "miningTarget",
      "outputs": [
        {
          "internalType": "uint256",
          "name": "",
          "type": "uint256"
        }
      ],
      "stateMutability": "view",
      "type": "function"
    },
    {
      "inputs": [],
      "name": "name",
      "outputs": [
        {
          "internalType": "string",
          "name": "",
          "type": "string"
        }
      ],
      "stateMutability": "view",
      "type": "function"
    },
    {
      "inputs": [],
      "name": "symbol",
      "outputs": [
        {
          "internalType": "string",
          "name": "",
          "type": "string"
        }
      ],
      "stateMutability": "view",
      "type": "function"
    },
    {
      "inputs": [],
      "name": "totalSupply",
      "outputs": [
        {
          "internalType": "uint256",
          "name": "",
          "type": "uint256"
        }
      ],
      "stateMutability": "view",
      "type": "function"
    },
    {
      "inputs": [
        {
          "internalType": "address",
          "name": "recipient",
          "type": "address"
        },
        {
          "internalType": "uint256",
          "name": "amount",
          "type": "uint256"
        }
      ],
      "name": "transfer",
      "outputs": [
        {
          "internalType": "bool",
          "name": "",
          "type": "bool"
        }
      ],
      "stateMutability": "nonpayable",
      "type": "function"
    },
    {
      "inputs": [
        {
          "internalType": "address",
          "name": "sender",
          "type": "address"
        },
        {
          "internalType": "address",
          "name": "recipient",
          "type": "address"
        },
        {
          "internalType": "uint256",
          "name": "amount",
          "type": "uint256"
        }
      ],
      "name": "transferFrom",
      "outputs": [
        {
          "internalType": "bool",
          "name": "",
          "type": "bool"
        }
      ],
      "stateMutability": "nonpayable",
      "type": "function"
    },
    {
      "inputs": [
        {
          "internalType": "uint256",
          "name": "nonce",
          "type": "uint256"
        },
        {
          "internalType": "bytes32",
          "name": "challenge_digest",
          "type": "bytes32"
        }
      ],
      "name": "mint",
      "outputs": [
        {
          "internalType": "bool",
          "name": "success",
          "type": "bool"
        }
      ],
      "stateMutability": "nonpayable",
      "type": "function"
    },
    {
      "inputs": [],
      "name": "getChallengeNumber",
      "outputs": [
        {
          "internalType": "bytes32",
          "name": "",
          "type": "bytes32"
        }
      ],
      "stateMutability": "view",
      "type": "function"
    },
    {
      "inputs": [],
      "name": "getMiningDifficulty",
      "outputs": [
        {
          "internalType": "uint256",
          "name": "",
          "type": "uint256"
        }
      ],
      "stateMutability": "view",
      "type": "function"
    },
    {
      "inputs": [],
      "name": "getMiningTarget",
      "outputs": [
        {
          "internalType": "uint256",
          "name": "",
          "type": "uint256"
        }
      ],
      "stateMutability": "view",
      "type": "function"
    }
  ],
  "bytecode": "0x608060405261010060085566010000000000006009557f8000000000000000000000000000000000000000000000000000000000000000600a553480156200004657600080fd5b506040518060400160405280600881526020017f45617379436f696e0000000000000000000000000000000000000000000000008152506040518060400160405280600481526020017f45415359000000000000000000000000000000000000000000000000000000008152508160039080519060200190620000cb929190620006eb565b508060049080519060200190620000e4929190620006eb565b506012600560006101000a81548160ff021916908360ff1602179055505050620001136200011960201b60201c565b6200079a565b6200013660016007546200017260201b620016471790919060201c565b6007819055506000600854600754816200014c57fe5b061415620001655762000164620001fb60201b60201c565b5b6001430340600c81905550565b600080828401905083811015620001f1576040517f08c379a000000000000000000000000000000000000000000000000000000000815260040180806020018281038252601b8152602001807f536166654d6174683a206164646974696f6e206f766572666c6f77000000000081525060200191505060405180910390fd5b8091505092915050565b600060065443039050600060085490506000600f82029050808310156200030a57600062000252846200023e6064856200042d60201b620019621790919060201c565b620004b860201b6200106d1790919060201c565b905060006103e8620002746064846200050a60201b620019e81790919060201c565b111562000286576103e89050620002a4565b620002a16064836200050a60201b620019e81790919060201c565b90505b6000819050620002fb620002e482620002d06107d0600b54620004b860201b6200106d1790919060201c565b6200042d60201b620019621790919060201c565b600b546200050a60201b620019e81790919060201c565b600b81905550505050620003f3565b600062000340826200032c6064876200042d60201b620019621790919060201c565b620004b860201b6200106d1790919060201c565b905060006103e8620003626064846200050a60201b620019e81790919060201c565b111562000374576103e8905062000392565b6200038f6064836200050a60201b620019e81790919060201c565b90505b6000819050620003e9620003d282620003be6107d0600b54620004b860201b6200106d1790919060201c565b6200042d60201b620019621790919060201c565b600b546200017260201b620016471790919060201c565b600b819055505050505b43600681905550600954600b5410156200041157600954600b819055505b600a54600b5411156200042857600a54600b819055505b505050565b600080831415620004425760009050620004b2565b60008284029050828482816200045457fe5b0414620004ad576040517f08c379a0000000000000000000000000000000000000000000000000000000008152600401808060200182810382526021815260200180620023346021913960400191505060405180910390fd5b809150505b92915050565b60006200050283836040518060400160405280601a81526020017f536166654d6174683a206469766973696f6e206279207a65726f0000000000008152506200055c60201b60201c565b905092915050565b60006200055483836040518060400160405280601e81526020017f536166654d6174683a207375627472616374696f6e206f766572666c6f7700008152506200062760201b60201c565b905092915050565b600080831182906200060c576040517f08c379a00000000000000000000000000000000000000000000000000000000081526004018080602001828103825283818151815260200191508051906020019080838360005b83811015620005d0578082015181840152602081019050620005b3565b50505050905090810190601f168015620005fe5780820380516001836020036101000a031916815260200191505b509250505060405180910390fd5b5060008385816200061957fe5b049050809150509392505050565b6000838311158290620006d8576040517f08c379a00000000000000000000000000000000000000000000000000000000081526004018080602001828103825283818151815260200191508051906020019080838360005b838110156200069c5780820151818401526020810190506200067f565b50505050905090810190601f168015620006ca5780820380516001836020036101000a031916815260200191505b509250505060405180910390fd5b5060008385039050809150509392505050565b828054600181600116156101000203166002900490600052602060002090601f016020900481019282601f106200072e57805160ff19168380011785556200075f565b828001600101855582156200075f579182015b828111156200075e57825182559160200191906001019062000741565b5b5090506200076e919062000772565b5090565b6200079791905b808211156200079357600081600090555060010162000779565b5090565b90565b611b8a80620007aa6000396000f3fe608060405234801561001057600080fd5b50600436106101585760003560e01c80636fd396d6116100c3578063a457c2d71161007c578063a457c2d7146105d9578063a9059cbb1461063f578063b7304272146106a5578063cb9ae707146106c3578063dd62ed3e146106e1578063f77e180e1461075957610158565b80636fd396d61461045a57806370a08231146104a4578063829965cc146104fc5780638a769d351461051a5780638ae0368b1461053857806395d89b411461055657610158565b806318160ddd1161011557806318160ddd146102f057806323b872dd1461030e578063313ce5671461039457806332e99708146103b857806339509351146103d65780634ef376281461043c57610158565b8063031052f31461015d57806306fdde031461017b578063095ea7b3146101fe578063163aa00d1461026457806317da485f146102825780631801fbe5146102a0575b600080fd5b610165610777565b6040518082815260200191505060405180910390f35b61018361077d565b6040518080602001828103825283818151815260200191508051906020019080838360005b838110156101c35780820151818401526020810190506101a8565b50505050905090810190601f1680156101f05780820380516001836020036101000a031916815260200191505b509250505060405180910390f35b61024a6004803603604081101561021457600080fd5b81019080803573ffffffffffffffffffffffffffffffffffffffff1690602001909291908035906020019092919050505061081f565b604051808215151515815260200191505060405180910390f35b61026c61083d565b6040518082815260200191505060405180910390f35b61028a610843565b6040518082815260200191505060405180910390f35b6102d6600480360360408110156102b657600080fd5b810190808035906020019092919080359060200190929190505050610861565b604051808215151515815260200191505060405180910390f35b6102f8610a07565b6040518082815260200191505060405180910390f35b61037a6004803603606081101561032457600080fd5b81019080803573ffffffffffffffffffffffffffffffffffffffff169060200190929190803573ffffffffffffffffffffffffffffffffffffffff16906020019092919080359060200190929190505050610a11565b604051808215151515815260200191505060405180910390f35b61039c610aea565b604051808260ff1660ff16815260200191505060405180910390f35b6103c0610b01565b6040518082815260200191505060405180910390f35b610422600480360360408110156103ec57600080fd5b81019080803573ffffffffffffffffffffffffffffffffffffffff16906020019092919080359060200190929190505050610b0b565b604051808215151515815260200191505060405180910390f35b610444610bbe565b6040518082815260200191505060405180910390f35b610462610bc8565b604051808273ffffffffffffffffffffffffffffffffffffffff1673ffffffffffffffffffffffffffffffffffffffff16815260200191505060405180910390f35b6104e6600480360360208110156104ba57600080fd5b81019080803573ffffffffffffffffffffffffffffffffffffffff169060200190929190505050610bee565b6040518082815260200191505060405180910390f35b610504610c36565b6040518082815260200191505060405180910390f35b610522610c3c565b6040518082815260200191505060405180910390f35b610540610c42565b6040518082815260200191505060405180910390f35b61055e610c48565b6040518080602001828103825283818151815260200191508051906020019080838360005b8381101561059e578082015181840152602081019050610583565b50505050905090810190601f1680156105cb5780820380516001836020036101000a031916815260200191505b509250505060405180910390f35b610625600480360360408110156105ef57600080fd5b81019080803573ffffffffffffffffffffffffffffffffffffffff16906020019092919080359060200190929190505050610cea565b604051808215151515815260200191505060405180910390f35b61068b6004803603604081101561065557600080fd5b81019080803573ffffffffffffffffffffffffffffffffffffffff16906020019092919080359060200190929190505050610db7565b604051808215151515815260200191505060405180910390f35b6106ad610dd5565b6040518082815260200191505060405180910390f35b6106cb610ddb565b6040518082815260200191505060405180910390f35b610743600480360360408110156106f757600080fd5b81019080803573ffffffffffffffffffffffffffffffffffffffff169060200190929190803573ffffffffffffffffffffffffffffffffffffffff169060200190929190505050610de1565b6040518082815260200191505060405180910390f35b610761610e68565b6040518082815260200191505060405180910390f35b600a5481565b606060038054600181600116156101000203166002900480601f0160208091040260200160405190810160405280929190818152602001828054600181600116156101000203166002900480156108155780601f106107ea57610100808354040283529160200191610815565b820191906000526020600020905b8154815290600101906020018083116107f857829003601f168201915b5050505050905090565b600061083361082c610e6e565b8484610e76565b6001905092915050565b600e5481565b600061085c600b54600a5461106d90919063ffffffff16565b905090565b600080600c543385604051602001808481526020018373ffffffffffffffffffffffffffffffffffffffff1673ffffffffffffffffffffffffffffffffffffffff1660601b815260140182815260200193505050506040516020818303038152906040528051906020012090508281146108da57600080fd5b600b548160001c11156108ec57600080fd5b6000600f6000600c54815260200190815260200160002054905081600f6000600c548152602001908152602001600020819055506000801b811461092f57600080fd5b61094133670de0b6b3a76400006110b7565b33600d60006101000a81548173ffffffffffffffffffffffffffffffffffffffff021916908373ffffffffffffffffffffffffffffffffffffffff16021790555043600e8190555061099161127e565b3373ffffffffffffffffffffffffffffffffffffffff167fcf6fbb9dcea7d07263ab4f5c3a92f53af33dffc421d9d121e1c74b307e68189d670de0b6b3a7640000600754600c5460405180848152602001838152602001828152602001935050505060405180910390a260019250505092915050565b6000600254905090565b6000610a1e8484846112c6565b610adf84610a2a610e6e565b610ada85604051806060016040528060288152602001611abf60289139600160008b73ffffffffffffffffffffffffffffffffffffffff1673ffffffffffffffffffffffffffffffffffffffff1681526020019081526020016000206000610a90610e6e565b73ffffffffffffffffffffffffffffffffffffffff1673ffffffffffffffffffffffffffffffffffffffff168152602001908152602001600020546115879092919063ffffffff16565b610e76565b600190509392505050565b6000600560009054906101000a900460ff16905090565b6000600b54905090565b6000610bb4610b18610e6e565b84610baf8560016000610b29610e6e565b73ffffffffffffffffffffffffffffffffffffffff1673ffffffffffffffffffffffffffffffffffffffff16815260200190815260200160002060008973ffffffffffffffffffffffffffffffffffffffff1673ffffffffffffffffffffffffffffffffffffffff1681526020019081526020016000205461164790919063ffffffff16565b610e76565b6001905092915050565b6000600c54905090565b600d60009054906101000a900473ffffffffffffffffffffffffffffffffffffffff1681565b60008060008373ffffffffffffffffffffffffffffffffffffffff1673ffffffffffffffffffffffffffffffffffffffff168152602001908152602001600020549050919050565b60075481565b600b5481565b600c5481565b606060048054600181600116156101000203166002900480601f016020809104026020016040519081016040528092919081815260200182805460018160011615610100020316600290048015610ce05780601f10610cb557610100808354040283529160200191610ce0565b820191906000526020600020905b815481529060010190602001808311610cc357829003601f168201915b5050505050905090565b6000610dad610cf7610e6e565b84610da885604051806060016040528060258152602001611b306025913960016000610d21610e6e565b73ffffffffffffffffffffffffffffffffffffffff1673ffffffffffffffffffffffffffffffffffffffff16815260200190815260200160002060008a73ffffffffffffffffffffffffffffffffffffffff1673ffffffffffffffffffffffffffffffffffffffff168152602001908152602001600020546115879092919063ffffffff16565b610e76565b6001905092915050565b6000610dcb610dc4610e6e565b84846112c6565b6001905092915050565b60085481565b60065481565b6000600160008473ffffffffffffffffffffffffffffffffffffffff1673ffffffffffffffffffffffffffffffffffffffff16815260200190815260200160002060008373ffffffffffffffffffffffffffffffffffffffff1673ffffffffffffffffffffffffffffffffffffffff16815260200190815260200160002054905092915050565b60095481565b600033905090565b600073ffffffffffffffffffffffffffffffffffffffff168373ffffffffffffffffffffffffffffffffffffffff161415610efc576040517f08c379a0000000000000000000000000000000000000000000000000000000008152600401808060200182810382526024815260200180611b0c6024913960400191505060405180910390fd5b600073ffffffffffffffffffffffffffffffffffffffff168273ffffffffffffffffffffffffffffffffffffffff161415610f82576040517f08c379a0000000000000000000000000000000000000000000000000000000008152600401808060200182810382526022815260200180611a566022913960400191505060405180910390fd5b80600160008573ffffffffffffffffffffffffffffffffffffffff1673ffffffffffffffffffffffffffffffffffffffff16815260200190815260200160002060008473ffffffffffffffffffffffffffffffffffffffff1673ffffffffffffffffffffffffffffffffffffffff168152602001908152602001600020819055508173ffffffffffffffffffffffffffffffffffffffff168373ffffffffffffffffffffffffffffffffffffffff167f8c5be1e5ebec7d5bd14f71427d1e84f3dd0314c0f7b2291e5b200ac8c7c3b925836040518082815260200191505060405180910390a3505050565b60006110af83836040518060400160405280601a81526020017f536166654d6174683a206469766973696f6e206279207a65726f0000000000008152506116cf565b905092915050565b600073ffffffffffffffffffffffffffffffffffffffff168273ffffffffffffffffffffffffffffffffffffffff16141561115a576040517f08c379a000000000000000000000000000000000000000000000000000000000815260040180806020018281038252601f8152602001807f45524332303a206d696e7420746f20746865207a65726f20616464726573730081525060200191505060405180910390fd5b61116660008383611795565b61117b8160025461164790919063ffffffff16565b6002819055506111d2816000808573ffffffffffffffffffffffffffffffffffffffff1673ffffffffffffffffffffffffffffffffffffffff1681526020019081526020016000205461164790919063ffffffff16565b6000808473ffffffffffffffffffffffffffffffffffffffff1673ffffffffffffffffffffffffffffffffffffffff168152602001908152602001600020819055508173ffffffffffffffffffffffffffffffffffffffff16600073ffffffffffffffffffffffffffffffffffffffff167fddf252ad1be2c89b69c2b068fc378daa952ba7f163c4a11628f55a4df523b3ef836040518082815260200191505060405180910390a35050565b611294600160075461164790919063ffffffff16565b6007819055506000600854600754816112a957fe5b0614156112b9576112b861179a565b5b6001430340600c81905550565b600073ffffffffffffffffffffffffffffffffffffffff168373ffffffffffffffffffffffffffffffffffffffff16141561134c576040517f08c379a0000000000000000000000000000000000000000000000000000000008152600401808060200182810382526025815260200180611ae76025913960400191505060405180910390fd5b600073ffffffffffffffffffffffffffffffffffffffff168273ffffffffffffffffffffffffffffffffffffffff1614156113d2576040517f08c379a0000000000000000000000000000000000000000000000000000000008152600401808060200182810382526023815260200180611a336023913960400191505060405180910390fd5b6113dd838383611795565b61144881604051806060016040528060268152602001611a78602691396000808773ffffffffffffffffffffffffffffffffffffffff1673ffffffffffffffffffffffffffffffffffffffff168152602001908152602001600020546115879092919063ffffffff16565b6000808573ffffffffffffffffffffffffffffffffffffffff1673ffffffffffffffffffffffffffffffffffffffff168152602001908152602001600020819055506114db816000808573ffffffffffffffffffffffffffffffffffffffff1673ffffffffffffffffffffffffffffffffffffffff1681526020019081526020016000205461164790919063ffffffff16565b6000808473ffffffffffffffffffffffffffffffffffffffff1673ffffffffffffffffffffffffffffffffffffffff168152602001908152602001600020819055508173ffffffffffffffffffffffffffffffffffffffff168373ffffffffffffffffffffffffffffffffffffffff167fddf252ad1be2c89b69c2b068fc378daa952ba7f163c4a11628f55a4df523b3ef836040518082815260200191505060405180910390a3505050565b6000838311158290611634576040517f08c379a00000000000000000000000000000000000000000000000000000000081526004018080602001828103825283818151815260200191508051906020019080838360005b838110156115f95780820151818401526020810190506115de565b50505050905090810190601f1680156116265780820380516001836020036101000a031916815260200191505b509250505060405180910390fd5b5060008385039050809150509392505050565b6000808284019050838110156116c5576040517f08c379a000000000000000000000000000000000000000000000000000000000815260040180806020018281038252601b8152602001807f536166654d6174683a206164646974696f6e206f766572666c6f77000000000081525060200191505060405180910390fd5b8091505092915050565b6000808311829061177b576040517f08c379a00000000000000000000000000000000000000000000000000000000081526004018080602001828103825283818151815260200191508051906020019080838360005b83811015611740578082015181840152602081019050611725565b50505050905090810190601f16801561176d5780820380516001836020036101000a031916815260200191505b509250505060405180910390fd5b50600083858161178757fe5b049050809150509392505050565b505050565b600060065443039050600060085490506000600f82029050808310156118745760006117e2846117d460648561196290919063ffffffff16565b61106d90919063ffffffff16565b905060006103e86117fd6064846119e890919063ffffffff16565b111561180d576103e89050611824565b6118216064836119e890919063ffffffff16565b90505b6000819050611866611855826118476107d0600b5461106d90919063ffffffff16565b61196290919063ffffffff16565b600b546119e890919063ffffffff16565b600b8190555050505061192a565b600061189c8261188e60648761196290919063ffffffff16565b61106d90919063ffffffff16565b905060006103e86118b76064846119e890919063ffffffff16565b11156118c7576103e890506118de565b6118db6064836119e890919063ffffffff16565b90505b600081905061192061190f826119016107d0600b5461106d90919063ffffffff16565b61196290919063ffffffff16565b600b5461164790919063ffffffff16565b600b819055505050505b43600681905550600954600b54101561194757600954600b819055505b600a54600b54111561195d57600a54600b819055505b505050565b60008083141561197557600090506119e2565b600082840290508284828161198657fe5b04146119dd576040517f08c379a0000000000000000000000000000000000000000000000000000000008152600401808060200182810382526021815260200180611a9e6021913960400191505060405180910390fd5b809150505b92915050565b6000611a2a83836040518060400160405280601e81526020017f536166654d6174683a207375627472616374696f6e206f766572666c6f770000815250611587565b90509291505056fe45524332303a207472616e7366657220746f20746865207a65726f206164647265737345524332303a20617070726f766520746f20746865207a65726f206164647265737345524332303a207472616e7366657220616d6f756e7420657863656564732062616c616e6365536166654d6174683a206d756c7469706c69636174696f6e206f766572666c6f7745524332303a207472616e7366657220616d6f756e74206578636565647320616c6c6f77616e636545524332303a207472616e736665722066726f6d20746865207a65726f206164647265737345524332303a20617070726f76652066726f6d20746865207a65726f206164647265737345524332303a2064656372656173656420616c6c6f77616e63652062656c6f77207a65726fa26469706673582212201bb7785b8f52fb4903a32aacf1a1d306f54d775547436de1bb9a9b1fefcc3a9964736f6c63430006020033536166654d6174683a206d756c7469706c69636174696f6e206f766572666c6f77",
  "source": "pragma solidity ^0.6.2;\r\n\r\nimport \"@openzeppelin/contracts/token/ERC20/ERC20.sol\";\r\nimport \"@openzeppelin/contracts/math/SafeMath.sol\";\r\n\r\ncontract EasyCoin is ERC20 {\r\n  using SafeMath for uint;\r\n\r\n  event Mint(address indexed from, uint reward_amount, uint epochCount, bytes32 newChallengeNumber);\r\n\r\n  uint public latestDifficultyPeriodStarted;\r\n  uint public epochCount;\r\n\r\n  uint public BLOCKS_PER_READJUSTMENT = 256;\r\n  uint public MINIMUM_TARGET = 2**48;\r\n  uint public MAXIMUM_TARGET = 2**255;\r\n\r\n  uint public miningTarget;\r\n  bytes32 public challengeNumber;\r\n\r\n  address public lastRewardTo;\r\n  uint public lastRewardEthBlockNumber;\r\n\r\n  mapping (bytes32 => bytes32) solutionForChallenge;\r\n\r\n  constructor() ERC20(\"EasyCoin\", \"EASY\") public {\r\n    _startNewMiningEpoch();\r\n  }\r\n\r\n  function mint(uint256 nonce, bytes32 challenge_digest) public returns (bool success) {\r\n\r\n    bytes32 digest = keccak256(abi.encodePacked(challengeNumber, msg.sender, nonce));\r\n\r\n    if (digest != challenge_digest) revert();\r\n\r\n    if (uint256(digest) > miningTarget) revert();\r\n\r\n    bytes32 solution = solutionForChallenge[challengeNumber];\r\n    solutionForChallenge[challengeNumber] = digest;\r\n    if (solution != 0x0) revert();\r\n\r\n    _mint(msg.sender, 10**18);\r\n\r\n    lastRewardTo = msg.sender;\r\n    lastRewardEthBlockNumber = block.number;\r\n\r\n    _startNewMiningEpoch();\r\n\r\n    emit Mint(msg.sender, 10**18, epochCount, challengeNumber);\r\n\r\n    return true;\r\n  }\r\n\r\n  function _startNewMiningEpoch() internal {\r\n\r\n    epochCount = epochCount.add(1);\r\n\r\n    if (epochCount % BLOCKS_PER_READJUSTMENT == 0) {\r\n      _readjustDifficulty();\r\n    }\r\n\r\n\r\n    challengeNumber = blockhash(block.number - 1);\r\n  }\r\n\r\n  function _readjustDifficulty() internal {\r\n\r\n\r\n    uint ethBlocksSinceLastDifficultyPeriod = block.number - latestDifficultyPeriodStarted;\r\n\r\n    uint epochsMined = BLOCKS_PER_READJUSTMENT;\r\n\r\n    uint targetEthBlocksPerDiffPeriod = epochsMined*15;\r\n\r\n    if (ethBlocksSinceLastDifficultyPeriod < targetEthBlocksPerDiffPeriod) {\r\n\r\n      uint excess_block_pct = (targetEthBlocksPerDiffPeriod.mul(100)).div(ethBlocksSinceLastDifficultyPeriod);\r\n\r\n      uint thingy;\r\n\r\n      if (excess_block_pct.sub(100) > 1000) {\r\n        thingy = 1000;\r\n      } else {\r\n        thingy = excess_block_pct.sub(100);\r\n      }\r\n\r\n      uint excess_block_pct_extra = thingy;\r\n\r\n      miningTarget = miningTarget.sub(miningTarget.div(2000).mul(excess_block_pct_extra));\r\n    } else {\r\n\r\n      uint shortage_block_pct = (ethBlocksSinceLastDifficultyPeriod.mul(100)).div(targetEthBlocksPerDiffPeriod);\r\n\r\n      uint thingy;\r\n\r\n      if (shortage_block_pct.sub(100) > 1000) {\r\n        thingy = 1000;\r\n      } else {\r\n        thingy = shortage_block_pct.sub(100);\r\n      }\r\n\r\n      uint shortage_block_pct_extra = thingy;\r\n\r\n      miningTarget = miningTarget.add(miningTarget.div(2000).mul(shortage_block_pct_extra));\r\n    }\r\n\r\n    latestDifficultyPeriodStarted = block.number;\r\n\r\n    if (miningTarget < MINIMUM_TARGET) {\r\n      miningTarget = MINIMUM_TARGET;\r\n    }\r\n\r\n    if (miningTarget > MAXIMUM_TARGET) {\r\n      miningTarget = MAXIMUM_TARGET;\r\n    }\r\n  }\r\n\r\n  function getChallengeNumber() public view returns (bytes32) {\r\n    return challengeNumber;\r\n  }\r\n\r\n  function getMiningDifficulty() public view returns (uint) {\r\n    return MAXIMUM_TARGET.div(miningTarget);\r\n  }\r\n\r\n  function getMiningTarget() public view returns (uint) {\r\n    return miningTarget;\r\n  }\r\n\r\n}\r\n",
  "sourcePath": "C:\\EasyCoin\\contracts\\EasyCoin.sol",
  "compiler": {
    "name": "solc",
    "version": "0.6.2+commit.bacdbe57.Emscripten.clang"
  },
  "schemaVersion": "3.1.0",
  "updatedAt": "2020-04-30T22:05:47.283Z",
  "devdoc": {
    "methods": {
      "allowance(address,address)": {
        "details": "See {IERC20-allowance}."
      },
      "approve(address,uint256)": {
        "details": "See {IERC20-approve}.     * Requirements:     * - `spender` cannot be the zero address."
      },
      "balanceOf(address)": {
        "details": "See {IERC20-balanceOf}."
      },
      "decimals()": {
        "details": "Returns the number of decimals used to get its user representation. For example, if `decimals` equals `2`, a balance of `505` tokens should be displayed to a user as `5,05` (`505 / 10 ** 2`).     * Tokens usually opt for a value of 18, imitating the relationship between Ether and Wei. This is the value {ERC20} uses, unless {_setupDecimals} is called.     * NOTE: This information is only used for _display_ purposes: it in no way affects any of the arithmetic of the contract, including {IERC20-balanceOf} and {IERC20-transfer}."
      },
      "decreaseAllowance(address,uint256)": {
        "details": "Atomically decreases the allowance granted to `spender` by the caller.     * This is an alternative to {approve} that can be used as a mitigation for problems described in {IERC20-approve}.     * Emits an {Approval} event indicating the updated allowance.     * Requirements:     * - `spender` cannot be the zero address. - `spender` must have allowance for the caller of at least `subtractedValue`."
      },
      "increaseAllowance(address,uint256)": {
        "details": "Atomically increases the allowance granted to `spender` by the caller.     * This is an alternative to {approve} that can be used as a mitigation for problems described in {IERC20-approve}.     * Emits an {Approval} event indicating the updated allowance.     * Requirements:     * - `spender` cannot be the zero address."
      },
      "name()": {
        "details": "Returns the name of the token."
      },
      "symbol()": {
        "details": "Returns the symbol of the token, usually a shorter version of the name."
      },
      "totalSupply()": {
        "details": "See {IERC20-totalSupply}."
      },
      "transfer(address,uint256)": {
        "details": "See {IERC20-transfer}.     * Requirements:     * - `recipient` cannot be the zero address. - the caller must have a balance of at least `amount`."
      },
      "transferFrom(address,address,uint256)": {
        "details": "See {IERC20-transferFrom}.     * Emits an {Approval} event indicating the updated allowance. This is not required by the EIP. See the note at the beginning of {ERC20};     * Requirements: - `sender` and `recipient` cannot be the zero address. - `sender` must have a balance of at least `amount`. - the caller must have allowance for ``sender``'s tokens of at least `amount`."
      }
    }
  },
  "userdoc": {
    "methods": {}
  }
}